:020000040000FA
:040000000CEF03F00E
:100018006A80D8CF27F0E8CF28F0E0CF29F0E9CFE1
:100028002AF0EACF2BF0E1CF2CF0E2CF2DF0D9CF98
:100038002EF0DACF2FF0F3CF30F0F4CF31F0F6CF47
:1000480032F0F7CF33F0F8CF34F0F5CF35F09D9A92
:1000580020EE80F010EE36F01F0EDBCFE3FFE8064F
:10006800FCE220EE60F010EE56F0040EDBCFE3FF6A
:10007800E806FCE2000E5B6E000E5C6E000E5D6E24
:10008800000E5E6E000E5F6E360E016E000E026E82
:100098006BEC06F07AEF02F0E90E026E7F0E036E4B
:1000A8007CEC09F0DBEC0AF0000E026E3C0E016EEF
:1000B800030E036E0EEC03F0A4EF00F09EAA67EFA8
:1000C80000F069EF00F082EF00F0360E016E000ECE
:1000D800026E6BEC06F0530E3618D8A476EF00F0DB
:1000E80078EF00F082EF00F0600E026E7F0E036E74
:1000F8007CEC09F0B2EF00F082EF00F06850655C2C
:1001080069506658D8B08BEF00F08DEF00F091EF92
:1001180000F0DBEC0AF091EF00F03CEC05F06550E4
:10012800685C66506958D8A09CEF00F09EEF00F01C
:10013800A4EF00F0B2EF00F0B2EF00F0A4EF00F08F
:100148006850651807E169506618D8A4AEEF00F04A
:10015800B0EF00F062EF00F0B2EF00F0B7EC0AF099
:1001680018EC0CF06550685C66506958D8A0BFEF71
:1001780000F0C1EF00F0EBEF02F0070E076EFA0E89
:10018800086E7F0E096E010E11EC0AF0F20E026E77
:100198007F0E036E7CEC09F0EBEF02F0EBEF02F060
:1001A800DBEC0AF0EBEF02F01FEC0BF0EBEF02F0E8
:1001B800B7EC0AF0EBEF02F03CEC05F0EBEF02F0E5
:1001C800B7EC0AF01E0E026E7F0E036E7CEC09F08F
:1001D800360E016E000E026E6BEC06F018EC0CF099
:1001E800010E076E360E086E000E096E010E11EC38
:1001F8000AF0EBEF02F0FF00EBEF02F0FDEC0AF083
:10020800EBEF02F041EC0BF0EBEF02F0000E026EA8
:10021800660E016E030E036E0EEC03F0EBEF02F0B8
:10022800000E026ECD0E016E030E036E0EEC03F08F
:10023800EBEF02F0010E026E330E016E030E036E39
:100248000EEC03F0EBEF02F0010E026E990E016E58
:10025800030E036E0EEC03F0EBEF02F0020E026EDB
:10026800000E016E030E036E0EEC03F0EBEF02F0CE
:10027800020E026E660E016E030E036E0EEC03F0A4
:10028800EBEF02F0020E026ECC0E016E030E036E4F
:100298000EEC03F0EBEF02F0030E026E320E016E6D
:1002A800030E036E0EEC03F0EBEF02F0030E026E8A
:1002B800990E016E030E036E0EEC03F0EBEF02F0E5
:1002C800030E026E0168030E036E0EEC03F0EBEFF3
:1002D80002F0B7EC0AF0DBEC0AF0020E026E000E38
:1002E800016E010E036E0EEC03F0030E026E016840
:1002F800020E036E0EEC03F0EBEF02F0B7EC0AF01F
:10030800DBEC0AF0030E026E0168010E036E0EECC0
:1003180003F0020E026E000E016E020E036E0EEC6A
:1003280003F0EBEF02F0B7EC0AF01FEC0BF0020E53
:10033800026E000E016E010E036E0EEC03F0030E4A
:10034800026E0168020E036E0EEC03F0EBEF02F092
:10035800B7EC0AF01FEC0BF0030E026E0168010EF9
:10036800036E0EEC03F0020E026E000E016E020E1A
:10037800036E0EEC03F0EBEF02F08BA6C6EF01F074
:10038800C8EF01F0D8EF01F08BA8CDEF01F0CFEF67
:1003980001F0D8EF01F08BBAD4EF01F0D6EF01F0FD
:1003A800DCEF01F0D8EF01F022EC0CF0EBEF02F0FB
:1003B80026EC0CF0EBEF02F0EBEF02F0B7EC0AF0F2
:1003C800D50E026E7E0E036E7CEC09F0360E016EC1
:1003D800000E026E6BEC06F0310E3618D8B4F7EF4B
:1003E80001F0F9EF01F00DEF02F0320E3618D8B433
:1003F80000EF02F002EF02F00DEF02F0330E3618B4
:10040800D8A409EF02F00BEF02F06EEF02F00DEF47
:1004180002F036500F0B5B6E450E026E7F0E036EB8
:100428007CEC09F0360E016E000E026E6BEC06F0E5
:10043800360E076E000E086EC7EC06F007C05CF0BB
:1004480008C05DF05E6A5F6A5CC001F05DC002F0E2
:100458005EC003F05FC004F0FF0E056E030E066E6B
:10046800000E076E000E086E0FEC09F001C00DF0CB
:1004780002C00EF003C00FF004C010F0640E116E3D
:10048800000E126E000E136E000E146E0FEC06F0C6
:100498000DC05CF00EC05DF00FC05EF010C05FF0E4
:1004A8005CC001F05DC002F05BC003F00EEC03F02D
:1004B800560E0D6E000E0E6E5CC00FF05DC010F093
:1004C800E8EC03F0560E026E000E036E7CEC09F0A9
:1004D800EBEF02F0820E026E7F0E036E7CEC09F0E9
:1004E800EBEF02F0EBEF02F0EBEF02F03650256E87
:1004F800266A2650000AD8B484EF02F0EBEF02F027
:100508002550300AD8B464EF01F0010AD8B40AEFD4
:1005180001F0030AD8B414EF01F0010AD8B41EEFB1
:1005280001F0070AD8B428EF01F0010AD8B432EF75
:1005380001F0030AD8B43CEF01F0010AD8B446EF41
:1005480001F00F0AD8B450EF01F0010AD8B45AEFFD
:1005580001F0780AD8B406EF01F0030AD8B4D8EF4E
:1005680000F0010AD8B402EF01F0070AD8B4E0EFAE
:1005780000F0020AD8B4D4EF00F00F0AD8B4FFEFA5
:1005880000F0050AD8B4C1EF01F01C0AD8B450EF46
:1005980000F0030AD8B4DCEF00F0070AD8B4E4EF9F
:1005A80000F0030AD8B46DEF01F00F0AD8B482EF57
:1005B80001F0010AD8B497EF01F0030AD8B4ACEF00
:1005C80001F03E0AD8B4E2EF01F0EBEF02F09D8AA9
:1005D80035C0F5FF34C0F8FF33C0F7FF32C0F6FF6F
:1005E80031C0F4FF30C0F3FF2FC0DAFF2EC0D9FFAF
:1005F8002DC0E2FF2CC0E1FF2BC0EAFF2AC0E9FFB3
:1006080029C0E0FF28C0E8FF27C0D8FF6A90100083
:1006180063EF0BF00350D8B414EF03F016EF03F0B8
:10062800E7EF03F0040E03601CEF03F01EEF03F086
:10063800E7EF03F001500210D8B425EF03F027EFDD
:1006480003F0E7EF03F0040E025CD8A02EEF03F0EE
:1006580030EF03F0CEEF03F0E7EF03F0E7EF03F03E
:10066800CEEF03F001C004F002C005F0D8900532C7
:100678000432D890053204320450BE6ED89002304D
:10068800056E0130046E0430D8B04DEF03F050EF22
:1006980003F0BD8A51EF03F0BD9A01B056EF03F0A5
:1006A80059EF03F0BD885AEF03F0BD98E7EF03F068
:1006B80001C004F002C005F0D89005320432D89089
:1006C800053204320450BB6ED8900230056E0130FA
:1006D800046E0430D8B073EF03F076EF03F0BA8AF3
:1006E80077EF03F0BA9A01B07CEF03F07FEF03F0E5
:1006F800BA8880EF03F0BA98E7EF03F001C004F07E
:1007080002C005F0D89005320432D8900532043280
:100718000450BE6ED8900230056E0130046E04306D
:10072800D8B099EF03F09CEF03F0BD8A9DEF03F07A
:10073800BD9A01B0A2EF03F0A5EF03F0BD88A6EFC4
:1007480003F0BD9801C004F002C005F0D89005324E
:100758000432D890053204320450BB6ED89002306F
:10076800056E0130046E0430D8B0BDEF03F0C0EF61
:1007780003F0BA8AC1EF03F0BA9A01B0C6EF03F0EA
:10078800C9EF03F0BA88CAEF03F0BA98E7EF03F0AD
:10079800E7EF03F00350046E056A0550000AD8B469
:1007A800D8EF03F0E7EF03F00450010AD8B436EFAE
:1007B80003F0030AD8B45CEF03F0010AD8B482EF5F
:1007C80003F0E7EF03F01200030E046EE80E036E69
:1007D8000FC001F010C002F09FEC07F001C008F054
:1007E80002C009F0000E0B6E0A0E0A6E5FEC08F0EC
:1007F800085030090DC0D9FF0EC0DAFFDF6E20EEB9
:1008080001F00D50D9260E50DA22000E046E640E47
:10081800036E0FC001F010C002F09FEC07F001C09A
:1008280008F002C009F0000E0B6E0A0E0A6E5FECAB
:1008380008F008503009DF6E20EE02F00D50D9267E
:100848000E50DA22000E046E0A0E036E0FC001F07D
:1008580010C002F09FEC07F001C008F002C009F0D8
:10086800000E0B6E0A0E0A6E5FEC08F00850300995
:10087800DF6E20EE03F00D50D9260E50DA220FC09D
:1008880008F010C009F0000E0B6E0A0E0A6E5FEC3D
:1008980008F008503009DF6E20EE04F00D50D9261C
:1008A8000E50DA22000EDF6E0DC0D9FF0EC0DAFF3F
:1008B800300EDE18D8A463EF04F065EF04F0A1EF62
:1008C80004F00DC0D9FF0EC0DAFF200EDF6E20EE57
:1008D80001F00D50D9260E50DA22300EDE18D8A4B9
:1008E80078EF04F07AEF04F0A1EF04F020EE01F0C5
:1008F8000D50D9260E50DA22200EDF6E20EE02F0BF
:100908000D50D9260E50DA22300EDE18D8A48FEFFB
:1009180004F091EF04F0A1EF04F020EE02F00D5086
:10092800D9260E50DA22200EDF6EA1EF04F0A1EFD7
:1009380004F0A1EF04F0A1EF04F01200000E166E0F
:1009480014BEABEF04F0A9EF04F0B7EF04F0141EE7
:10095800131E121E116C000E122213221422010EF5
:10096800166EB7EF04F010BEBEEF04F0BCEF04F053
:10097800CAEF04F0101E0F1E0E1E0D6C000E0E2284
:100988000F221022010E161ACAEF04F0000E176E7D
:10099800000E186E000E196E000E1A6E115012100D
:1009A80013101410D8B4DBEF04F0DDEF04F01FEFE0
:1009B80005F0010E156EE9EF04F0D89011361236E5
:1009C80013361436152AE9EF04F014AEEEEF04F0EE
:1009D800F0EF04F0E1EF04F0F4EF04F0F4EF04F0CA
:1009E800D8901736183619361A3611500D5C125031
:1009F8000E5813500F5814501058D8A006EF05F091
:100A080008EF05F013EF05F011500D5E12500E5A65
:100A180013500F5A1450105A178013EF05F0D8903E
:100A28001432133212321132152EF4EF04F01FEF84
:100A380005F01FEF05F01650D8B425EF05F027EFA5
:100A480005F031EF05F01A1E191E181E176C000E5E
:100A5800182219221A2231EF05F017C00DF018C01C
:100A68000EF019C00FF01AC010F03BEF05F012009D
:100A7800000E1F6E000E666E000E656E8C80140EE2
:100A8800E82EFED78C9049EF05F083A24EEF05F0D3
:100A980050EF05F049EF05F0D58E53EF05F083B21E
:100AA80058EF05F05AEF05F053EF05F0D59E980E74
:100AB8001B6E980E1C6ED6CF1DF0D7CF1EF01B50A4
:100AC8001D261C501E221DC001F01EC002F0036A24
:100AD800046A800E056E590E066E030E076E000E30
:100AE800086E0FEC09F001C00DF002C00EF003C053
:100AF8000FF004C010F0400E116E0D0E126E030EB2
:100B0800136E000E146EA2EC04F00D5065260E5004
:100B18006622670ED76E680ED66E190EE82EFED7BF
:100B280065C012F066C013F0E0EC09F0200E0D6EFF
:100B3800000E0E6E65C00FF066C010F0E8EC03F012
:100B4800820E1B6EDE0EE82EFED71B2EFCD7ADEFF5
:100B580005F01200E5EC0BF06AEC0AF01EEC0CF064
:100B68000A0EF9EC0BF0010E0001A66FCE0EA76F6E
:100B78007F0EA86F010EAFEC09F0A20E0001A16F65
:100B88007F0EA26F48EC09F01A0E0001AD6F5E0EE1
:100B9800AC6F6E0EE82EFED7AC2FFCD7AD2FFAD770
:100BA80000F03FEC0AF0010E0001A66F920EA76F4D
:100BB8007F0EA86F020EAFEC09F0710E0001A16F55
:100BC8007F0EA26F48EC09F082EC0BF0010E0001D9
:100BD800A66FDC0EA76F7F0EA86F010EAFEC09F0B1
:100BE800C00E0001A16F7F0EA26F48EC09F01A0E2B
:100BF8000001AD6F5E0EAC6F6E0EE82EFED7AC2F07
:100C0800FCD7AD2FFAD700F0010E21EC08F00BEF5E
:100C180006F00CEF03F0000E156E000E166E000EB7
:100C2800176E000E186E1150121013101410D8B44D
:100C380020EF06F022EF06F062EF06F0010E196EC3
:100C48002EEF06F0D8901136123613361436192ABC
:100C58002EEF06F014AE33EF06F035EF06F026EF70
:100C680006F039EF06F039EF06F0D890153616364B
:100C78001736183611500D5C12500E5813500F5875
:100C880014501058D8A04BEF06F04DEF06F058EF6F
:100C980006F011500D5E12500E5A13500F5A145090
:100CA800105A158058EF06F0D890143213321232C9
:100CB8001132192E39EF06F062EF06F015C00DF06B
:100CC80016C00EF017C00FF018C010F01200000E7A
:100CD800086E6FEF06F00850010DF3500124D96E2D
:100CE800F4500220DA6EB7EC0BF0DF6E082AFF0E24
:100CF800036EFF0E046E0850056E066A0350052643
:100D08000450062205500124D96E06500220DA6EDE
:100D1800DF50D8B492EF06F094EF06F0BAEF06F081
:100D2800FF0E036EFF0E046E0850056E066A035030
:100D380005260450062205500124D96E06500220CB
:100D4800DA6E2E0EDE18D8B4ACEF06F0AEEF06F071
:100D5800BAEF06F01E0E0864B4EF06F0B6EF06F020
:100D68006FEF06F0BAEF06F0BAEF06F00850010D83
:100D7800F3500124D96EF4500220DA6E000EDF6EB3
:100D8800C6EF06F01200000E0B6E000E0A6E07C0CA
:100D9800D9FF08C0DAFFDF50096E0F0E0916095097
:100DA800016E026A030E046EE80E036ED0EC0BF0BF
:100DB80001C00AF002C00BF020EE01F00750D9265E
:100DC8000850DA22DF50096E0F0E09160950640D1B
:100DD800F3500A26F4500B2220EE02F00750D926D1
:100DE8000850DA22DF50096E0F0E091609500A0D55
:100DF800F3500A26F4500B2220EE03F00750D926B0
:100E08000850DA22DF50096E0F0E091609500A261B
:100E1800000E0B220AC007F00BC008F014EF07F011
:100E28001200000E0001A56F40EF07F0A3C0F6FF07
:100E3800A4C0F7FFF86A050EF76403D00800F55060
:100E480005D0F6CFE9FFF7CFEAFFEF50E3EC07F064
:100E58000001A34BA42BA52B100EA519D8A437EF7E
:100E680007F039EF07F040EF07F0C00E21EC08F06B
:100E780040EF07F040EF07F0A3C0F6FFA4C0F7FF6C
:100E8800F86A050EF76403D00800F55005D0F6CFD0
:100E9800E9FFF7CFEAFFEF500009D8A456EF07F0B3
:100EA80058EF07F01AEF07F05AEF07F01200000E9C
:100EB800066E84EF07F004C0F6FF05C0F7FFF86A76
:100EC800050EF76403D00800F55005D0F6CFE9FF0A
:100ED800F7CFEAFFEF509BEC08F0044A052A062AF0
:100EE800100E0618D8A47BEF07F07DEF07F084EF0B
:100EF80007F0C00ED5EC08F084EF07F084EF07F098
:100F080004C0F6FF05C0F7FFF86A050EF76403D0C2
:100F18000800F55005D0F6CFE9FFF7CFEAFFEF500C
:100F28000009D8A49AEF07F09CEF07F05FEF07F0ED
:100F38009EEF07F01200000E066E000E056E0350BD
:100F48000410D8B4AAEF07F0ACEF07F0DEEF07F013
:100F5800010E076EB6EF07F0D89003360436072A5D
:100F6800B6EF07F004AEBBEF07F0BDEF07F0B0EF48
:100F780007F0C1EF07F0C1EF07F0D8900536063645
:100F88000350015C04500258D8A0CDEF07F0CFEF12
:100F980007F0D6EF07F00350015E0450025A0580AF
:100FA800D6EF07F0D89004320332072EC1EF07F0CE
:100FB800DEEF07F005C001F006C002F012000001E4
:100FC800A26FA2C067F06740E8423F0B3C0B8A6EF5
:100FD8008A8000F08A8200F08A92070E0001A06FD2
:100FE8007D0EE82EFED7A02FFCD7A2C067F0675071
:100FF8000001A06FA16BA03BA13BF00EA117A0516F
:101008000F0BA113F00EA017A135A133A033A13502
:10101800A133A033A0518A6E8A8000F08A8200F042
:101028008A920D0E0001A06FFB0EE82EFED7A02FAE
:10103800FCD700D020EF08F012000001A26FA2C078
:1010480067F06740E8423F0B3C0B8A6E8A9000F0DD
:101058008A8200F08A92070E0001A06F7D0EE82EAA
:10106800FED7A02FFCD7A2C067F067500001A06F81
:10107800A16BA03BA13BF00EA117A0510F0BA11330
:10108800F00EA017A135A133A033A135A133A033A9
:10109800A0518A6E8A9000F08A8200F08A92140E1B
:1010A8000001A06F790EE82EFED7A02FFCD700D044
:1010B8005EEF08F012000A500B10D8B466EF08F083
:1010C80068EF08F096EF08F0010E0C6E72EF08F06A
:1010D800D8900A360B360C2A72EF08F00BAE77EF71
:1010E80008F079EF08F06CEF08F07DEF08F07DEF7D
:1010F80008F00A50085C0B500958D8A086EF08F091
:1011080088EF08F08EEF08F00A50085E0B50095A75
:101118008EEF08F0D8900B320A320C2E7DEF08F0D3
:1011280096EF08F008C008F009C009F01200036E35
:1011380003C067F06740E8423F0B3C0B8A6E8A8029
:1011480000F08A8200F08A92070E016E7D0EE82E6A
:10115800FED7012EFCD700F003C067F06750016E80
:10116800026A013A023AF00E021601500F0B0212FF
:10117800F00E011602340232013202340232013218
:1011880001508A6E8A8000F08A8200F08A920D0EE1
:10119800016EFC0EE82EFED7012EFCD7D4EF08F026
:1011A8001200036E03C067F06740E8423F0B3C0B38
:1011B8008A6E8A9000F08A8200F08A92070E016E89
:1011C8007D0EE82EFED7012EFCD700F003C067F095
:1011D8006750016E026A013A023AF00E0216015097
:1011E8000F0B0212F00E01160234023201320234E1
:1011F8000232013201508A6E8A9000F08A8200F031
:101208008A92140E016E7A0EE82EFED7012EFCD7B4
:101218000EEF09F01200000E096E000E0A6E000EA5
:101228000B6E000E0C6E19EF09F001A01EEF09F00D
:1012380020EF09F02AEF09F00550092606500A2286
:1012480007500B2208500C222AEF09F0D8900536D7
:10125800063607360836D890043203320232013295
:101268000150021003100410D8A43DEF09F03FEF1D
:1012780009F019EF09F009C001F00AC002F00BC02B
:1012880003F00CC004F0120061EF09F0A1C0F6FFF2
:10129800A2C0F7FFF86A050EF76403D00800F550FE
:1012A80005D0F6CFE9FFF7CFEAFFEF50F9EC0BF0E6
:1012B8000001A14BA22B61EF09F0A1C0F6FFA2C06B
:1012C800F7FFF86A050EF76403D00800F55005D05B
:1012D800F6CFE9FFF7CFEAFFEF500009D8A477EF80
:1012E80009F079EF09F04AEF09F07BEF09F01200F5
:1012F80094EF09F002C0F6FF03C0F7FFF86A050E85
:10130800F76403D00800F55005D0F6CFE9FFF7CF12
:10131800EAFFEF5009EC0CF0024A032A94EF09F0B7
:1013280002C0F6FF03C0F7FFF86A050EF76403D0A2
:101338000800F55005D0F6CFE9FFF7CFEAFFEF50E8
:101348000009D8A4AAEF09F0ACEF09F07EEF09F084
:10135800AEEF09F012000001AA6F000E0001AB6F9A
:10136800020EAA61BAEF09F0BCEF09F0C9EF09F063
:10137800A6C0A9F00F0EA917800EA913A905AB6F77
:10138800AB5121EC08F0D7EF09F0A6C0A9F00F0E79
:101398000001A917C00EA913A905AB6FAB5121EC29
:1013A80008F0D7EF09F0A7C0A3F0A8C0A4F015EC87
:1013B80007F0DFEF09F01200140E0D6E000E0E6E2E
:1013C80012C00FF013C010F0E8EC03F0010ED5ECDA
:1013D80008F0010E076EB10E086E7F0E096E010E41
:1013E80011EC0AF0070E076E140E086E000E096E57
:1013F800020E11EC0AF0B10E026E7F0E036E7CEC49
:1014080009F0140E026E000E036E7CEC09F00A0E51
:1014180009EC0CF010EF0AF012000B6E000E0C6EC7
:10142800020E0B601AEF0AF01CEF0AF029EF0AF01F
:1014380007C00AF00F0E0A16800E0A120A040C6E74
:101448000C50D5EC08F036EF0AF007C00AF00F0E82
:101458000A16C00E0A120A040C6E0C50D5EC08F0DD
:1014680036EF0AF008C004F009C005F05BEC07F09D
:101478003EEF0AF012008C988C9A8C8C8C9E948487
:1014880094829598959A959C959ECB68BD86BD84C7
:10149800BD92BD90BA86BA84BA92BA90BE68BD8A27
:1014A800BD88BB68BA8ABA889E92CA82CA80CA8432
:1014B8005EEF0AF09EA263EF0AF065EF0AF05EEFB6
:1014C8000AF09494949293EC0AF01200000E8A6E3B
:1014D800000E936E020E0001A46F450EA36FA90EB5
:1014E800E82EFED7A32FFCD7A42FFAD700D0300EB2
:1014F8009DEC0BF0280E21EC08F0280E21EC08F0EA
:101508000C0E21EC08F0010E21EC08F0060E21EC7F
:1015180008F0020E21EC08F092EF0AF012008C9805
:101528008C9C8C9A8C9EBB50BE18D8B49EEF0AF047
:10153800A0EF0AF0B6EF0AF0BECFBBFFBDBAA7EF27
:101548000AF0AAEF0AF0BA8AABEF0AF0BA9ABDB865
:10155800B0EF0AF0B3EF0AF0BA88B4EF0AF0BA981D
:10156800B6EF0AF012008C988C9C8C9A8C9EBB501B
:10157800BE18D8B4C2EF0AF0C4EF0AF0DAEF0AF0E6
:10158800BECFBBFFBDBACBEF0AF0CEEF0AF0BA8AE6
:10159800CFEF0AF0BA9ABDB8D4EF0AF0D7EF0AF045
:1015A800BA88D8EF0AF0BA98DAEF0AF01200BB50FE
:1015B800BE18D8B4E2EF0AF0E4EF0AF0F8EF0AF048
:1015C800BECFBBFFBDBAEBEF0AF0EEEF0AF0BA8A66
:1015D800EFEF0AF0BA9ABDB8F4EF0AF0F7EF0AF0A5
:1015E800BA88F8EF0AF0BA988C888C8C8C9A8C9E02
:1015F8001200BB50BE18D8B404EF0BF006EF0BF086
:101608001AEF0BF0BECFBBFFBDBA0DEF0BF010EF1A
:101618000BF0BA8A11EF0BF0BA9ABDB816EF0BF0BF
:1016280019EF0BF0BA881AEF0BF0BA988C888C9CDB
:101638008C9A8C8E1200BB50BE18D8B426EF0BF0D3
:1016480028EF0BF03CEF0BF0BECFBBFFBDBA2FEF7E
:101658000BF032EF0BF0BA8A33EF0BF0BA9ABDB841
:1016680038EF0BF03BEF0BF0BA883CEF0BF0BA9871
:101678008C988C9C8C8A8C8E1200BB50BE18D8B467
:1016880048EF0BF04AEF0BF05EEF0BF0BECFBBFF5D
:10169800BDBA51EF0BF054EF0BF0BA8A55EF0BF0CF
:1016A800BA9ABDB85AEF0BF05DEF0BF0BA885EEF4F
:1016B8000BF0BA988C988C8C8C8A8C9E1200540EE5
:1016C800F66E180EF76E000EF86E0900F5CF68F08A
:1016D8000900F5CF69F000EE80F0200EEE6AE8060A
:1016E800FDE100EE60F0080EEE6AE806FDE16A90A2
:1016F8006A92000EF86E0001AEEF05F0F286F290E5
:101708008C9095909582D59ED59CD588D596D58474
:10171800D592D590D59AF294F290F28EF28CF28A04
:10172800F298F294670ED76E680ED66E9CEF0BF0A7
:1017380012000001A16FA1C067F06740E8423F0BAB
:101748003C0B8A6E8A9000F08A8200F08A92140E0E
:101758000001A06F790EE82EFED7A02FFCD700D08D
:10176800B6EF0BF01200B9EF0BF09EAABEEF0BF02C
:10177800C0EF0BF0B9EF0BF0ABA2C5EF0BF0C7EF62
:101788000BF0CCEF0BF0AB9800F0AB88CCEF0BF084
:10179800AE50CFEF0BF0120001500302F3CF05F06B
:1017A800F4CF06F001500402F3500626025003025B
:1017B800F350062605C001F006C002F0E4EF0BF076
:1017C8001200949C948EAC9CAC8AAC98AC96AC8479
:1017D800AB8EAB9CAB88AB86B896B892B890820EAD
:1017E800AF6EF28C9D8AF28E12000001A06FFDEFA1
:1017F8000BF09EA802EF0CF004EF0CF0FDEF0BF0DD
:1018080006EF0CF0A0C0ADFF1200016E0CEF0CF05B
:101818009EA811EF0CF013EF0CF00CEF0CF015EF85
:101828000CF001C0ADFF1200010ED5EC08F01DEF61
:101838000CF0120094969498949A12008B868B88D8
:0E1848008B8A12008B968B988B9A12002D00C3
:107ED400005768696368206D6F746F7220646F2047
:107EE400796F752077616E7420746F2073657420C8
:107EF40044433F204D6F746F722031202831292C68
:107F0400204D6F746F72203220283229206F722026
:107F1400626F7468202833290A00577269746520D7
:107F24007768617420796F752077616E7420746F3F
:107F340020736565206F6E20746865204C43440A85
:107F440000506C6561736520656E746572204443EE
:107F54002076616C7565202825290A005061726BB2
:107F6400696E672073746F707065640A004D6F7476
:107F74006F7220636F6E6E65637465640A00577276
:107F84006F6E6720416E7377657221210A004D6F11
:107F9400746F7220636F6E6E6563746564004C4326
:107FA4004420636F6E6E65637465640A004469738C
:107FB40074616E636520286D6D293A005553206302
:107FC4006F6E6E65637465640A004C434420636F8E
:107FD4006E6E656374656400555320636F6E6E65E1
:107FE40063746564005061726B696E670A00444F84
:0C7FF4004E4521210A00444F4E4500007C
:020000040020DA
:08000000FFFFFFFFFFFFFFFF00
:020000040030CA
:0E000000FF02191EFF8181FF0FC00FE00F40AD
:00000001FF
